{
  "_format": "hh-sol-artifact-1",
  "contractName": "CrowdFunding",
  "sourceName": "contracts/CrowdFunding.sol",
  "abi": [
    {
      "inputs": [
        {
          "internalType": "uint256",
          "name": "",
          "type": "uint256"
        }
      ],
      "name": "campaigns",
      "outputs": [
        {
          "internalType": "address",
          "name": "owner",
          "type": "address"
        },
        {
          "internalType": "string",
          "name": "title",
          "type": "string"
        },
        {
          "internalType": "string",
          "name": "description",
          "type": "string"
        },
        {
          "internalType": "uint256",
          "name": "target",
          "type": "uint256"
        },
        {
          "internalType": "uint256",
          "name": "deadline",
          "type": "uint256"
        },
        {
          "internalType": "uint256",
          "name": "amountCollected",
          "type": "uint256"
        }
      ],
      "stateMutability": "view",
      "type": "function"
    },
    {
      "inputs": [
        {
          "internalType": "address",
          "name": "_owner",
          "type": "address"
        },
        {
          "internalType": "string",
          "name": "_title",
          "type": "string"
        },
        {
          "internalType": "string",
          "name": "_description",
          "type": "string"
        },
        {
          "internalType": "uint256",
          "name": "_target",
          "type": "uint256"
        },
        {
          "internalType": "uint256",
          "name": "_deadline",
          "type": "uint256"
        }
      ],
      "name": "createCampaign",
      "outputs": [
        {
          "internalType": "uint256",
          "name": "",
          "type": "uint256"
        }
      ],
      "stateMutability": "nonpayable",
      "type": "function"
    },
    {
      "inputs": [
        {
          "internalType": "uint256",
          "name": "_id",
          "type": "uint256"
        }
      ],
      "name": "donateToCampaign",
      "outputs": [],
      "stateMutability": "payable",
      "type": "function"
    },
    {
      "inputs": [],
      "name": "getCampaigns",
      "outputs": [
        {
          "components": [
            {
              "internalType": "address",
              "name": "owner",
              "type": "address"
            },
            {
              "internalType": "string",
              "name": "title",
              "type": "string"
            },
            {
              "internalType": "string",
              "name": "description",
              "type": "string"
            },
            {
              "internalType": "uint256",
              "name": "target",
              "type": "uint256"
            },
            {
              "internalType": "uint256",
              "name": "deadline",
              "type": "uint256"
            },
            {
              "internalType": "uint256",
              "name": "amountCollected",
              "type": "uint256"
            },
            {
              "internalType": "address[]",
              "name": "donators",
              "type": "address[]"
            },
            {
              "internalType": "uint256[]",
              "name": "donations",
              "type": "uint256[]"
            }
          ],
          "internalType": "struct CrowdFunding.Campaign[]",
          "name": "",
          "type": "tuple[]"
        }
      ],
      "stateMutability": "view",
      "type": "function"
    },
    {
      "inputs": [
        {
          "internalType": "uint256",
          "name": "_id",
          "type": "uint256"
        }
      ],
      "name": "getDonators",
      "outputs": [
        {
          "internalType": "address[]",
          "name": "",
          "type": "address[]"
        },
        {
          "internalType": "uint256[]",
          "name": "",
          "type": "uint256[]"
        }
      ],
      "stateMutability": "view",
      "type": "function"
    },
    {
      "inputs": [],
      "name": "numberOfCampaigns",
      "outputs": [
        {
          "internalType": "uint256",
          "name": "",
          "type": "uint256"
        }
      ],
      "stateMutability": "view",
      "type": "function"
    }
  ],
  "bytecode": "0x6080604052600060015534801561001557600080fd5b50611971806100256000396000f3fe6080604052600436106100555760003560e01c8063075843c31461005a57806307ca140d146100975780630fa91fa9146100c2578063141961bc1461010057806342a4fda814610142578063a6b036331461015e575b600080fd5b34801561006657600080fd5b50610081600480360381019061007c9190610ca2565b610189565b60405161008e9190610d64565b60405180910390f35b3480156100a357600080fd5b506100ac6102e0565b6040516100b99190610d64565b60405180910390f35b3480156100ce57600080fd5b506100e960048036038101906100e49190610d7f565b6102e6565b6040516100f7929190610f28565b60405180910390f35b34801561010c57600080fd5b5061012760048036038101906101229190610d7f565b6103f6565b60405161013996959493929190610fed565b60405180910390f35b61015c60048036038101906101579190610d7f565b610562565b005b34801561016a57600080fd5b50610173610715565b604051610180919061130b565b60405180910390f35b60008060008060015481526020019081526020016000209050428160040154106101e8576040517f08c379a00000000000000000000000000000000000000000000000000000000081526004016101df9061139f565b60405180910390fd5b6000841161022b576040517f08c379a000000000000000000000000000000000000000000000000000000000815260040161022290611431565b60405180910390fd5b868160000160006101000a81548173ffffffffffffffffffffffffffffffffffffffff021916908373ffffffffffffffffffffffffffffffffffffffff1602179055508581600101908161027f919061165d565b5084816002019081610291919061165d565b5083816003018190555082816004018190555060008160050181905550600160008154809291906102c19061175e565b9190505550600180546102d491906117a6565b91505095945050505050565b60015481565b6060806000808481526020019081526020016000206006016000808581526020019081526020016000206007018180548060200260200160405190810160405280929190818152602001828054801561039457602002820191906000526020600020905b8160009054906101000a900473ffffffffffffffffffffffffffffffffffffffff1673ffffffffffffffffffffffffffffffffffffffff168152602001906001019080831161034a575b50505050509150808054806020026020016040519081016040528092919081815260200182805480156103e657602002820191906000526020600020905b8154815260200190600101908083116103d2575b5050505050905091509150915091565b60006020528060005260406000206000915090508060000160009054906101000a900473ffffffffffffffffffffffffffffffffffffffff169080600101805461043f90611480565b80601f016020809104026020016040519081016040528092919081815260200182805461046b90611480565b80156104b85780601f1061048d576101008083540402835291602001916104b8565b820191906000526020600020905b81548152906001019060200180831161049b57829003601f168201915b5050505050908060020180546104cd90611480565b80601f01602080910402602001604051908101604052809291908181526020018280546104f990611480565b80156105465780601f1061051b57610100808354040283529160200191610546565b820191906000526020600020905b81548152906001019060200180831161052957829003601f168201915b5050505050908060030154908060040154908060050154905086565b600034905060008060008481526020019081526020016000209050600082118015610591575080600301548211155b6105d0576040517f08c379a00000000000000000000000000000000000000000000000000000000081526004016105c790611872565b60405180910390fd5b80600601339080600181540180825580915050600190039060005260206000200160009091909190916101000a81548173ffffffffffffffffffffffffffffffffffffffff021916908373ffffffffffffffffffffffffffffffffffffffff1602179055508060070182908060018154018082558091505060019003906000526020600020016000909190919091505560008160000160009054906101000a900473ffffffffffffffffffffffffffffffffffffffff1673ffffffffffffffffffffffffffffffffffffffff16836040516106aa906118c3565b60006040518083038185875af1925050503d80600081146106e7576040519150601f19603f3d011682016040523d82523d6000602084013e6106ec565b606091505b50509050801561070f5782826005015461070691906118d8565b82600501819055505b50505050565b6060600060015467ffffffffffffffff81111561073557610734610b41565b5b60405190808252806020026020018201604052801561076e57816020015b61075b610a59565b8152602001906001900390816107535790505b50905060005b600154811015610a51576000806000838152602001908152602001600020905080604051806101000160405290816000820160009054906101000a900473ffffffffffffffffffffffffffffffffffffffff1673ffffffffffffffffffffffffffffffffffffffff1673ffffffffffffffffffffffffffffffffffffffff16815260200160018201805461080790611480565b80601f016020809104026020016040519081016040528092919081815260200182805461083390611480565b80156108805780601f1061085557610100808354040283529160200191610880565b820191906000526020600020905b81548152906001019060200180831161086357829003601f168201915b5050505050815260200160028201805461089990611480565b80601f01602080910402602001604051908101604052809291908181526020018280546108c590611480565b80156109125780601f106108e757610100808354040283529160200191610912565b820191906000526020600020905b8154815290600101906020018083116108f557829003601f168201915b50505050508152602001600382015481526020016004820154815260200160058201548152602001600682018054806020026020016040519081016040528092919081815260200182805480156109be57602002820191906000526020600020905b8160009054906101000a900473ffffffffffffffffffffffffffffffffffffffff1673ffffffffffffffffffffffffffffffffffffffff1681526020019060010190808311610974575b5050505050815260200160078201805480602002602001604051908101604052809291908181526020018280548015610a1657602002820191906000526020600020905b815481526020019060010190808311610a02575b505050505081525050838381518110610a3257610a3161190c565b5b6020026020010181905250508080610a499061175e565b915050610774565b508091505090565b604051806101000160405280600073ffffffffffffffffffffffffffffffffffffffff168152602001606081526020016060815260200160008152602001600081526020016000815260200160608152602001606081525090565b6000604051905090565b600080fd5b600080fd5b600073ffffffffffffffffffffffffffffffffffffffff82169050919050565b6000610af382610ac8565b9050919050565b610b0381610ae8565b8114610b0e57600080fd5b50565b600081359050610b2081610afa565b92915050565b600080fd5b600080fd5b6000601f19601f8301169050919050565b7f4e487b7100000000000000000000000000000000000000000000000000000000600052604160045260246000fd5b610b7982610b30565b810181811067ffffffffffffffff82111715610b9857610b97610b41565b5b80604052505050565b6000610bab610ab4565b9050610bb78282610b70565b919050565b600067ffffffffffffffff821115610bd757610bd6610b41565b5b610be082610b30565b9050602081019050919050565b82818337600083830152505050565b6000610c0f610c0a84610bbc565b610ba1565b905082815260208101848484011115610c2b57610c2a610b2b565b5b610c36848285610bed565b509392505050565b600082601f830112610c5357610c52610b26565b5b8135610c63848260208601610bfc565b91505092915050565b6000819050919050565b610c7f81610c6c565b8114610c8a57600080fd5b50565b600081359050610c9c81610c76565b92915050565b600080600080600060a08688031215610cbe57610cbd610abe565b5b6000610ccc88828901610b11565b955050602086013567ffffffffffffffff811115610ced57610cec610ac3565b5b610cf988828901610c3e565b945050604086013567ffffffffffffffff811115610d1a57610d19610ac3565b5b610d2688828901610c3e565b9350506060610d3788828901610c8d565b9250506080610d4888828901610c8d565b9150509295509295909350565b610d5e81610c6c565b82525050565b6000602082019050610d796000830184610d55565b92915050565b600060208284031215610d9557610d94610abe565b5b6000610da384828501610c8d565b91505092915050565b600081519050919050565b600082825260208201905092915050565b6000819050602082019050919050565b610de181610ae8565b82525050565b6000610df38383610dd8565b60208301905092915050565b6000602082019050919050565b6000610e1782610dac565b610e218185610db7565b9350610e2c83610dc8565b8060005b83811015610e5d578151610e448882610de7565b9750610e4f83610dff565b925050600181019050610e30565b5085935050505092915050565b600081519050919050565b600082825260208201905092915050565b6000819050602082019050919050565b610e9f81610c6c565b82525050565b6000610eb18383610e96565b60208301905092915050565b6000602082019050919050565b6000610ed582610e6a565b610edf8185610e75565b9350610eea83610e86565b8060005b83811015610f1b578151610f028882610ea5565b9750610f0d83610ebd565b925050600181019050610eee565b5085935050505092915050565b60006040820190508181036000830152610f428185610e0c565b90508181036020830152610f568184610eca565b90509392505050565b610f6881610ae8565b82525050565b600081519050919050565b600082825260208201905092915050565b60005b83811015610fa8578082015181840152602081019050610f8d565b60008484015250505050565b6000610fbf82610f6e565b610fc98185610f79565b9350610fd9818560208601610f8a565b610fe281610b30565b840191505092915050565b600060c0820190506110026000830189610f5f565b81810360208301526110148188610fb4565b905081810360408301526110288187610fb4565b90506110376060830186610d55565b6110446080830185610d55565b61105160a0830184610d55565b979650505050505050565b600081519050919050565b600082825260208201905092915050565b6000819050602082019050919050565b600082825260208201905092915050565b60006110a482610f6e565b6110ae8185611088565b93506110be818560208601610f8a565b6110c781610b30565b840191505092915050565b600082825260208201905092915050565b60006110ee82610dac565b6110f881856110d2565b935061110383610dc8565b8060005b8381101561113457815161111b8882610de7565b975061112683610dff565b925050600181019050611107565b5085935050505092915050565b600082825260208201905092915050565b600061115d82610e6a565b6111678185611141565b935061117283610e86565b8060005b838110156111a357815161118a8882610ea5565b975061119583610ebd565b925050600181019050611176565b5085935050505092915050565b6000610100830160008301516111c96000860182610dd8565b50602083015184820360208601526111e18282611099565b915050604083015184820360408601526111fb8282611099565b91505060608301516112106060860182610e96565b5060808301516112236080860182610e96565b5060a083015161123660a0860182610e96565b5060c083015184820360c086015261124e82826110e3565b91505060e083015184820360e08601526112688282611152565b9150508091505092915050565b600061128183836111b0565b905092915050565b6000602082019050919050565b60006112a18261105c565b6112ab8185611067565b9350836020820285016112bd85611078565b8060005b858110156112f957848403895281516112da8582611275565b94506112e583611289565b925060208a019950506001810190506112c1565b50829750879550505050505092915050565b600060208201905081810360008301526113258184611296565b905092915050565b7f54686520646561646c696e652073686f756c642062652061206461746520696e60008201527f2074686520667574757265000000000000000000000000000000000000000000602082015250565b6000611389602b83610f79565b91506113948261132d565b604082019050919050565b600060208201905081810360008301526113b88161137c565b9050919050565b7f54686520616d6f756e742073686f756c6420626520677265617465722074686160008201527f6e20300000000000000000000000000000000000000000000000000000000000602082015250565b600061141b602383610f79565b9150611426826113bf565b604082019050919050565b6000602082019050818103600083015261144a8161140e565b9050919050565b7f4e487b7100000000000000000000000000000000000000000000000000000000600052602260045260246000fd5b6000600282049050600182168061149857607f821691505b6020821081036114ab576114aa611451565b5b50919050565b60008190508160005260206000209050919050565b60006020601f8301049050919050565b600082821b905092915050565b6000600883026115137fffffffffffffffffffffffffffffffffffffffffffffffffffffffffffffffff826114d6565b61151d86836114d6565b95508019841693508086168417925050509392505050565b6000819050919050565b600061155a61155561155084610c6c565b611535565b610c6c565b9050919050565b6000819050919050565b6115748361153f565b61158861158082611561565b8484546114e3565b825550505050565b600090565b61159d611590565b6115a881848461156b565b505050565b5b818110156115cc576115c1600082611595565b6001810190506115ae565b5050565b601f821115611611576115e2816114b1565b6115eb846114c6565b810160208510156115fa578190505b61160e611606856114c6565b8301826115ad565b50505b505050565b600082821c905092915050565b600061163460001984600802611616565b1980831691505092915050565b600061164d8383611623565b9150826002028217905092915050565b61166682610f6e565b67ffffffffffffffff81111561167f5761167e610b41565b5b6116898254611480565b6116948282856115d0565b600060209050601f8311600181146116c757600084156116b5578287015190505b6116bf8582611641565b865550611727565b601f1984166116d5866114b1565b60005b828110156116fd578489015182556001820191506020850194506020810190506116d8565b8683101561171a5784890151611716601f891682611623565b8355505b6001600288020188555050505b505050505050565b7f4e487b7100000000000000000000000000000000000000000000000000000000600052601160045260246000fd5b600061176982610c6c565b91507fffffffffffffffffffffffffffffffffffffffffffffffffffffffffffffffff820361179b5761179a61172f565b5b600182019050919050565b60006117b182610c6c565b91506117bc83610c6c565b92508282039050818111156117d4576117d361172f565b5b92915050565b7f54686520646f6e61746520616d6f756e74206d7573742062652067726561746560008201527f72207468616e2030206f72206c657373207468616e207265717569726564204160208201527f6d6f756e74000000000000000000000000000000000000000000000000000000604082015250565b600061185c604583610f79565b9150611867826117da565b606082019050919050565b6000602082019050818103600083015261188b8161184f565b9050919050565b600081905092915050565b50565b60006118ad600083611892565b91506118b88261189d565b600082019050919050565b60006118ce826118a0565b9150819050919050565b60006118e382610c6c565b91506118ee83610c6c565b92508282019050808211156119065761190561172f565b5b92915050565b7f4e487b7100000000000000000000000000000000000000000000000000000000600052603260045260246000fdfea264697066735822122099aaf4c23482bcf7858b2c6fd556d31d0c7a0c26f98321ab8e8ac7ee1ed497fe64736f6c63430008130033",
  "linkReferences": {},
  "deployedLinkReferences": {}
}